:100000000C94DD000C9405010C9405010C94050181
:100010000C9405010C9405010C9405010C94050148
:100020000C9405010C9405010C9496040C940505A0
:100030000C9405010C9405010C9405010C94050128
:100040000C9405010C9481070C9405010C94050196
:100050000C9405010C9405010C9405010C943707D0
:100060000C9405010C9405010C9405010C940501F8
:100070000C9405010C9405010C9405010C940501E8
:100080000C9405010C9405010C9405010C940501D8
:100090000C9405010C9405010C9405010C940501C8
:1000A0000C9405010C9405010C94050105A84CCD98
:1000B000B2D44EB93836A9020C50B9918688083CA2
:1000C000A6AAAA2ABE000000803F00000002000984
:1000D0000F0000030401000C0000000000000000FD
:1000E000000000000000000000080B0002020200F7
:1000F00000090400000102020000052400100105AF
:1001000024010101042402060524060001070581DB
:100110000310004009040100020A00000007050264
:100120000240000007058302400000040309041296
:10013000010002EF02014041233680000101020369
:100140000141726475696E6F204C4C4300417264CA
:1001500075696E6F204C656F6E6172646F00000090
:100160000000250028002B002E00310000000000B8
:10017000240027002A002D00300004040404040396
:100180000405020202020403020202020606060637
:10019000060604040202020404040802011040805E
:1001A000401020408040800802040180402010025E
:1001B00001108010204040203D0811241FBECFEFC9
:1001C000DAE0DEBFCDBF11E0A0E0B1E0EAE0F9E1A6
:1001D00002C005900D92A632B107D9F721E0A6E240
:1001E000B1E001C01D92A53CB207E1F710E0CDEDF2
:1001F000D0E004C02197FE010E94870ACC3DD107C0
:10020000C9F70E948E080C94830C0C94000090E0B7
:10021000FC01E756FE4F249186589E4FFC018491C5
:10022000882399F090E0880F991FFC01E459FE4F54
:10023000A591B491FC01E25AFE4F859194918FB73C
:10024000F894EC91E22BEC938FBF0895FC01809120
:100250004901882311F13FB7F89482E08093E900C7
:100260002091F200822F90E01816190614F481E014
:1002700090E0882339F0289844E640934801409163
:10028000F1004083222339F02091F200211103C0B4
:100290002BE62093E8003FBF08958FEF9FEF08956E
:1002A0002FB7F89483E08093E9009091E800892FBC
:1002B000807295FF04C09091F20080E4891B2FBFEB
:1002C00008958091400181110DC082E080933C012E
:1002D00084E080933D0110923F0110923E0181E045
:1002E000809340018CE391E00895CF93DF931F92B8
:1002F000CDB7DEB76983DC01ED91FC910280F3811B
:10030000E02D41E050E0BE016F5F7F4F09950F90F7
:10031000DF91CF91089583E08093E9008091F2000E
:10032000882319F08AE38093E80008950E94500121
:1003300090E00895CF93DF931F92CDB7DEB7FC0115
:100340008485958597FD08C02FEF3FEF358724877B
:100350000F90DF91CF910895CE0101960E94260162
:10036000019719F4898190E0F3CF8FEF9FEFF0CFE1
:100370000F931F93CF93DF931F92CDB7DEB78C01FE
:10038000FC018485958597FF0BC0CE0101960E94E4
:100390002601019771F4898190E0F801958784879F
:1003A000F801848595850F90DF91CF911F910F9172
:1003B00008958FEF9FEFF1CFFC018485958597FD20
:1003C0000BC09FB7F89482E08093E9008091F2001F
:1003D0009FBF90E0019608959FB7F89482E08093C4
:1003E000E9008091F2009FBF90E0089540913601AE
:1003F0005091370120913401309135014217530754
:10040000B4F49091E8009570E1F39091E80092FDCA
:1004100019C08093F10080913601909137010196C7
:100420008F739927892B19F48EEF8093E8008091C0
:1004300036019091370101969093370180933601F0
:1004400081E0089580E00895EF92FF920F931F934B
:10045000CF93DF93F82E192FE62E042F81E0860F1D
:10046000880F0E94F60183E00E94F601CF2DD12F64
:10047000EC0EFD2EF11CCE15DF05B9F007FF13C001
:10048000FE0184910E94F601182F80E00E94F6017F
:10049000812321968111EFCFDF91CF911F910F9191
:1004A000FF90EF9008958881EDCF81E0F5CFDF9246
:1004B000EF92FF920F931F93CF93DF93D82E8A0171
:1004C000EB017B01E40EF51ECE15DF0559F0D7FEDA
:1004D00012C0FE0184910E94F60121968111F4CF91
:1004E0000FEF1FEFC801DF91CF911F910F91FF9088
:1004F000EF90DF9008958881EECF0F931F93CF93F5
:10050000DF931F92CDB7DEB782E0898342E450E0EB
:1005100069EE70E080E80E9457020E946101DC01F0
:1005200012960D911C910115110589F0D801ED91DC
:10053000FC910280F381E02DBE016F5F7F4FC80107
:10054000099597FD04C0F80100851185ECCF8981DC
:100550000F90DF91CF911F910F910895615030F06E
:100560002091F100FC0120830196F8CF289884E6C1
:10057000809348010895282F30E0F901E653FF4F9A
:100580009491F901E756FE4F849126583E4FF901A8
:100590002491222309F430C09923E9F091509F302F
:1005A000D0F4E92FF0E0E952FD4F0C94870A0503DF
:1005B0000903E602FD020103EB02EB02EB020C036E
:1005C000120316031A032003EB0224039091800008
:1005D0009F7790938000E22FF0E0EE0FFF1FE25A2A
:1005E000FE4FA591B4919FB7F894EC91611132C080
:1005F00080958E238C939FBF0895909180009F7D5E
:10060000E8CF90918000977FE4CF94B59F7794BD19
:10061000E2CF94B59F7DFBCF909190009F77909310
:100620009000D9CF909190009F7DF9CF909190004C
:10063000977FF5CF9091C0009F779093C000CBCF6C
:100640009091C0009F7DF9CF9091C200977F9093C9
:10065000C200C1CF8E2BCECF3FB7F894809130012E
:1006600090913101A0913201B091330126B5A89B40
:1006700005C02F3F19F00196A11DB11D3FBFBA2F34
:10068000A92F982F8827BC01CD01620F711D811DF4
:10069000911D42E0660F771F881F991F4A95D1F779
:1006A00008958F929F92AF92BF92CF92DF92EF9276
:1006B000FF924B015C010E942C036B017C010E94A4
:1006C0002C036C197D098E099F09683E73408105D2
:1006D0009105A8F321E0821A9108A108B10888EEDB
:1006E000C80E83E0D81EE11CF11C81149104A10402
:1006F000B10429F7FF90EF90DF90CF90BF90AF90BB
:100700009F908F9008958F929F92AF92BF92CF92B9
:10071000DF92EF92FF920F931F93CF93DF936C01C1
:100720007B018A0180910B01882309F45CC08091D0
:100730004901882309F457C080913B0180FF05C01F
:100740008091E00082608093E000E801B12C8AEFA4
:10075000A82E93E0892E2AE3922E209711F4BB2035
:10076000D9F10E94500181110AC0AA94AA20D9F19E
:1007700061E070E080E090E00E945103EECF8C17C2
:100780001D0611F00CF08C2F9FB7F8948092E900B1
:100790002091E80025FD02C09FBFDFCF282F30E069
:1007A000C21BD30BF701815020F041914093F1001F
:1007B000FACFE20EF31EBB2021F09092E800B12C9C
:1007C000EBCF8091E80085FDE7CF9092E800BB2455
:1007D000B394209709F3F3CF5D9884E680933A01B0
:1007E000101611063CF081E090E0F60193838283BD
:1007F00010E000E0C801DF91CF911F910F91FF90B1
:10080000EF90DF90CF90BF90AF909F908F90089522
:10081000CF92DF92EF92FF92CF93DF93EC016032A1
:1008200082E07807CCF5653B710514F064EB70E06D
:10083000898128E830E0281B310987FD3395220F94
:10084000331F220F331F6901330FEE08FF088A811F
:1008500028E532E0281B310987FD3395220F331F2D
:10086000220F331F032E000C440B550B2C193D098E
:100870004E095F09DB0177FF02C0B0E0A0E00E94F3
:10088000420A24EB30E040E050E00E94180AC20E19
:10089000D31EE41EF51EB601E881EC3070F5298107
:1008A00088E890E0821B910927FD9395880F991F96
:1008B000880F991F681779077CF02A8188E592E0F4
:1008C000821B910927FD9395880F991F880F991F07
:1008D000681779070CF4CB010297880F991F4FB75F
:1008E000F8942E2F30E0F901EE0FFF1FE20FF31FF7
:1008F000E656FE4F928381834FBFDF91CF91FF90E9
:10090000EF90DF90CF900895892B79F410928000BA
:1009100082E0809381001092850010928400B19A49
:1009200080916F00826080936F0008951F920F92F4
:100930000FB60F9211248F939F938091E1009091B5
:10094000E100937F9093E10083FF0FC01092E900D4
:1009500091E09093EB001092EC0092E39093ED0005
:100960001092490198E09093F00082FF22C093E03A
:100970009093E9009091F200992319F09AE39093F3
:10098000E80090913A01992341F090913A019150F9
:1009900090933A01911101C05D9A90914801992379
:1009A00041F090914801915090934801911101C0FC
:1009B000289A84FF18C08091E2008E7E8160809327
:1009C000E2008091E1008F7E8093E10080913B0105
:1009D0008E7E806180933B019F918F910F900FBE1F
:1009E0000F901F90189580FFF7CF8091E2008E7EC8
:1009F00080618093E2008091E1008E7E8093E1002F
:100A000080913B018E7E8160E5CF1F920F920FB6E1
:100A10000F921124CF92DF92EF92FF920F931F93C8
:100A20002F933F934F935F936F937F938F939F93F6
:100A3000AF93BF93EF93FF93CF93DF93CDB7DEB721
:100A40006C97DEBFCDBF1092E9008091E80083FF74
:100A500025C068E0CE0145960E94AE0282EF8093E9
:100A6000E8008D8987FF39C09091E80090FFFCCFA6
:100A7000982F907609F034C19E894F89588D2F891F
:100A8000F88C911131C0803861F5809139018093E3
:100A9000F1001092F1008EEF8093E8006C960FB693
:100AA000F894DEBF0FBECDBFDF91CF91FF91EF91E4
:100AB000BF91AF919F918F917F916F915F914F9176
:100AC0003F912F911F910F91FF90EF90DF90CF906A
:100AD0000F900FBE0F901F9018959EEF9093E80017
:100AE000C7CF1092F100D5CF913059F48111D3CFF7
:100AF0004130510581F6809139018D7F8093390114
:100B0000CACF933049F48111C6CF4130510519F64F
:100B1000809139018260F2CF953041F48091E800F4
:100B200080FFFCCF20682093E300B5CF963009F01A
:100B3000A9C00B8D1C8D22E01092E90010923701A4
:100B400010923601F2122EC010923501109234012B
:100B50000E947D021F8299E09983FA8291E09E8330
:100B600090EA98879AEF9987209136013091370162
:100B7000275F3F4F3C832B838D831092E9001092B7
:100B8000370110923601109335010093340149E08A
:100B900050E0BE016F5F7F4F80E00E9457020E94CD
:100BA0007D0279CF10933501009334010E946101D9
:100BB000DC0112960D911C910115110509F451C12A
:100BC000D801ED91FC910480F581E02DBE016B5EB2
:100BD0007F4FC8010995009709F03EC1F8010085D3
:100BE0001185EACFF3E0FF120EC08F89882309F444
:100BF00040C0823061F440E860E18DE491E00E9401
:100C00002402811148CF81E28093EB0047CF8130ED
:100C100029F440E86BE081E491E0F1CF833099F76B
:100C20000E946101DC011296ED90FC908E010F5F35
:100C30001F4F6801E114F10479F0D701ED91FC91A7
:100C40000680F781E02DB801C7010995080F111D35
:100C5000F701E084F184EECFD8011C92F6010190F7
:100C60000020E9F73197BF016C197D0940E0C6010A
:100C7000C6CF6BE271E0FB01449150E080E80E9436
:100C8000570209CF973009F4BECF983021F481E0A4
:100C90008093F10000CF993009F0FDCE837009F008
:100CA000B2CFEDE0F1E081E031E096E32191222343
:100CB00071F08093E9003093EB00DF0111972C91E4
:100CC0002093EC009093ED008F5F873079F78EE7EB
:100CD0008093EA001092EA008F8980934901DBCE6D
:100CE0008B8D9C8D1092E900109237011092360185
:100CF0009093350180933401898D811192C08E8942
:100D00009D89913A49F4813209F07DCF47E050E066
:100D100064E071E080E0B3CF913209F074CF8332A8
:100D200069F48F89988DB0E0A0E0809300019093E2
:100D30000101A0930201B0930301ADCE803269F4AA
:100D40008091E80082FFFCCF67E084E091E00E94A0
:100D5000AE028BEF8093E8009ECE823209F09BCEEC
:100D60008F8980930B01EEEFFFE7859194918B3F84
:100D70009C4D51F1E0E0F8E0809104019091050173
:100D8000A0910601B0910701803B9440A105B105F7
:100D9000F1F480910B0180FD1AC0EE3F8AE0F80764
:100DA00089F587E797E7918380838091600080933E
:100DB000380188E19BE00FB6F894A8958093600015
:100DC0000FBE9093600067CEEEEFFAE0D5CF808142
:100DD00091818737974709F05ECEA8958091600092
:100DE0008861809360008091380180936000EE3FBD
:100DF0002AE0F20789F08091FE0A9091FF0A918320
:100E0000808349CE808191818737980751F29093F2
:100E1000FF0A8093FE0AC5CF1092FF0A1092FE0AC5
:100E20003ACE0E946101DC0112960D911C910115D0
:100E3000110509F4E8CED801ED91FC910190F08103
:100E4000E02DBE016B5E7F4FC8010995811123CE55
:100E5000F80100851185EBCF181619060CF41BCE8E
:100E6000D2CEF1E0FF12BECE6FE271E004CF1F924E
:100E70000F920FB60F9211242F933F938F939F934E
:100E8000AF93BF9380912C0190912D01A0912E01E1
:100E9000B0912F0130912B0123E0230F2D3758F50E
:100EA0000196A11DB11D20932B0180932C019093DD
:100EB0002D01A0932E01B0932F01809130019091CC
:100EC0003101A0913201B09133010196A11DB11DF4
:100ED0008093300190933101A0933201B09333019C
:100EE000BF91AF919F918F913F912F910F900FBE26
:100EF0000F901F90189526E8230F0296A11DB11D93
:100F0000D2CF1F920F920FB60F9211242F933F93BF
:100F10004F935F936F937F938F939F93AF93BF9301
:100F2000CF93DF93EF93FF9380912601C091BE0191
:100F3000D0E087FF24C01092850010928400809139
:100F400026018F5F8093260180912601082E000CD8
:100F5000990B8C179D0724F4809126018C30C4F1E5
:100F60008091840090918500049680349C4908F417
:100F70007AC08091840090918500049676C080911B
:100F80002601082E000C990B8C179D07C4F6E091E2
:100F900026018E2FEE0F990BFC01EE0FFF1FE80FBD
:100FA000F91FE656FE4F808186FFC9CFE0912601EA
:100FB0008E2FEE0F990BFC01EE0FFF1FE80FF91FAC
:100FC000E656FE4F808160E08F730E94BB02B7CF70
:100FD0002091840030918500E09126018E2FEE0F44
:100FE000990BFC01EE0FFF1FE80FF91FE656FE4FAD
:100FF00081819281820F931F909389008093880052
:10100000E09126018E2FEE0F990BFC01EE0FFF1FD2
:10101000E80FF91FE656FE4F808186FF11C0E09170
:1010200026018E2FEE0F990BFC01EE0FFF1FE80F2C
:10103000F91FE656FE4F808161E08F730E94BB026C
:10104000FF91EF91DF91CF91BF91AF919F918F91E0
:101050007F916F915F914F913F912F910F900FBEB4
:101060000F901F90189580E49CE9909389008093DD
:1010700088008FEF80932601E3CF10924D011092EC
:101080004C0188EE93E0A0E0B0E080934E01909395
:101090004F01A0935001B093510187E191E09093EB
:1010A0004B0180934A018FEF9FEF909357018093FC
:1010B00056018091BE018C3048F591E0980F9093D5
:1010C000BE018093C20190E0FC01EE0FFF1FE80F0C
:1010D000F91FE656FE4F88EB9BE092838183809157
:1010E000BE018C30B8F491E0980F9093BE018093CC
:1010F000BF0190E0FC01EE0FFF1FE80FF91FE6565D
:10110000FE4F88EB9BE09283818308958FEF80935D
:10111000C201E5CF8FEF8093BF010895789484B525
:10112000826084BD84B5816084BD85B5826085BDE3
:1011300085B5816085BD80916E00816080936E0071
:101140001092810080918100826080938100809163
:101150008100816080938100809180008160809314
:101160008000809191008260809391008091910035
:1011700081608093910080919000816080939000C5
:101180008091C10084608093C1008091C100826021
:101190008093C1008091C10081608093C1008091E3
:1011A000C30081608093C3008091C00082608093FF
:1011B000C0008091C20081608093C20080917A005B
:1011C000846080937A0080917A00826080937A00B4
:1011D00080917A00816080937A0080917A008068A3
:1011E00080937A00109249011092390110923B01CC
:1011F0008091D70081608093D70080EA8093D800E7
:1012000089B5806189BD89B5826089BD09B400FE58
:10121000FDCF61E070E080E090E00E94510380919A
:10122000D8008F7C80618093D8008091E000807F1F
:101230008093E0008091E1008E7E8093E1008DE05C
:101240008093E200559A209A8091BF018C3008F07B
:1012500042C088E00E9407018091BF01282F30E042
:10126000F901EE0FFF1FE20FF31FE656FE4F9081CC
:10127000907C986090831092C0011092C1012CE084
:10128000622F0E947B0A90E0829FB001112430E01F
:1012900020E0AB01420F531FFA01EE0FFF1FE40FD6
:1012A000F51FE656FE4F408146FD07C02F5F3F4FBA
:1012B0002C30310571F70E948404E091BF018E2F1C
:1012C00090E0FC01EE0FFF1FE80FF91FE656FE4FFE
:1012D0008081806480838091C2018C3008F042C09C
:1012E00089E00E9407018091C201282F30E0F901B6
:1012F000EE0FFF1FE20FF31FE656FE4F9081907C2A
:10130000996090831092C3011092C4012CE0622F67
:101310000E947B0A90E0829FB001112430E020E01F
:10132000AB01420F531FFA01EE0FFF1FE40FF51F31
:10133000E656FE4F408146FD07C02F5F3F4F2C30E1
:10134000310571F70E948404E091C2018E2F90E074
:10135000FC01EE0FFF1FE80FF91FE656FE4F8081DC
:10136000806480836AE570E08FEB91E00E9408045E
:101370006AE570E082EC91E00E940804C0E0D0E0F1
:10138000C0902701D0902801E0902901F0902A0117
:10139000C701B6010E94320C2B013C01C701B60106
:1013A0000E94FA0A4B015C0120E030E040E85FE374
:1013B000C301B2010E948E0A20E030E044EB52E407
:1013C0000E94C50B0E94FF0A82EC91E00E94080473
:1013D00020E030E040E85FE3C501B4010E948E0ADE
:1013E00020E030E044EB52E40E94C50B0E94FF0A6B
:1013F0008FEB91E00E9408042AE037ED43EA5BE3BB
:10140000C701B6010E948E0A6093270170932801DC
:101410008093290190932A0165E070E080E090E0DC
:101420000E945103209709F4ABCF0E940000A8CF7F
:10143000052E97FB1EF400940E942F0A57FD07D03B
:101440000E944A0A07FC03D04EF40C942F0A5095D0
:101450004095309521953F4F4F4F5F4F08959095A0
:101460008095709561957F4F8F4F9F4F08950E9493
:101470006C0AA59F900DB49F900DA49F800D911DA7
:1014800011240895B7FF0C94370A0E94370A821B73
:10149000930B0895A1E21A2EAA1BBB1BFD010DC0E0
:1014A000AA1FBB1FEE1FFF1FA217B307E407F50714
:1014B00020F0A21BB30BE40BF50B661F771F881FF0
:1014C000991F1A9469F760957095809590959B0186
:1014D000AC01BD01CF010895A29FB001B39FC0012F
:1014E000A39F700D811D1124911DB29F700D811D50
:1014F0001124911D0895991B79E004C0991F961736
:1015000008F0961B881F7A95C9F780950895EE0F0D
:10151000FF1F0590F491E02D09945058BB27AA278E
:101520000E94A50A0C94770B0E943E0B38F00E9493
:10153000450B20F039F49F3F19F426F40C943B0B33
:101540000EF4E095E7FB0C94350BE92F0E949C0B01
:1015500058F3BA17620773078407950720F079F4E8
:10156000A6F50C94BE0B0EF4E0950B2EBA2FA02D11
:101570000B01B90190010C01CA01A0011124FF2740
:10158000591B99F0593F50F4503E68F11A16F0403B
:10159000A22F232F342F4427585FF3CF469537953A
:1015A0002795A795F0405395C9F77EF41F16BA0BFF
:1015B000620B730B840BBAF09150A1F0FF0FBB1FAD
:1015C000661F771F881FC2F70EC0BA0F621F731FF6
:1015D000841F48F4879577956795B795F7959E3F53
:1015E00008F0B0CF9395880F08F09927EE0F9795E4
:1015F000879508950E944E0BE3950C94880B0E94EA
:10160000060B6894B1110C94BF0B08950E94A40BB3
:1016100088F09F5798F0B92F9927B751B0F0E1F0B3
:10162000660F771F881F991F1AF0BA95C9F714C063
:10163000B13091F00E94BE0BB1E008950C94BE0B46
:10164000672F782F8827B85F39F0B93FCCF386959C
:1016500077956795B395D9F73EF4909580957095F9
:1016600061957F4F8F4F9F4F089597F99F6780E84F
:1016700070E060E008959FEF80EC089500240A94E4
:101680001616170618060906089500240A9412165D
:1016900013061406050608950C943B0B0E94A40B38
:1016A000D8F3E894E0E0BB279F57F0F02AED3FE045
:1016B00049EC06C0EE0FBB0F661F771F881F28F08E
:1016C000B23A62077307840728F0B25A620B730BB1
:1016D000840BE3959A9572F7803830F49A95BB0F96
:1016E000661F771F881FD2F790480C943C0C092E78
:1016F0000394000C11F4882352F0BB0F40F4BF2B6D
:1017000011F460FF04C06F5F7F4F8F4F9F4F0895AC
:10171000EF93E0FF07C0A2EA2AED3FE049EC5FEB60
:101720000E94A50A0E94770B0F90039401FC905829
:10173000ECEAF0E00C94480C57FD9058440F551F0C
:1017400059F05F3F71F04795880F97FB991F61F043
:101750009F3F79F087950895121613061406551FBA
:10176000F2CF4695F1DF08C0161617061806991F26
:10177000F1CF86957105610508940895E894BB271B
:1017800066277727CB0197F908950E94D80B0C9410
:10179000770B0E943E0B38F00E94450B20F09523FA
:1017A00011F00C94350B0C943B0B11240C94BF0BD3
:1017B0000E949C0B70F3959FC1F3950F50E0551F4D
:1017C000629FF001729FBB27F00DB11D639FAA2796
:1017D000F00DB11DAA1F649F6627B00DA11D661FE5
:1017E000829F2227B00DA11D621F739FB00DA11D06
:1017F000621F839FA00D611D221F749F3327A00DC0
:10180000611D231F849F600D211D822F762F6A2F5B
:1018100011249F5750409AF0F1F088234AF0EE0FC0
:10182000FF1FBB1F661F771F881F91505040A9F7ED
:101830009E3F510580F00C94350B0C94BF0B5F3F1D
:10184000E4F3983ED4F3869577956795B795F79529
:10185000E7959F5FC1F7FE2B880F911D96958795A1
:1018600097F908959F930E944E0B0F9007FCEE5F2F
:101870000C94880B9F3F31F0915020F48795779519
:101880006795B795880F911D9695879597F9089557
:101890009F938F937F936F93FF93EF939B01AC0183
:1018A0000E94C50BEF91FF910E945C0C2F913F911C
:1018B0004F915F910C94C50BDF93CF931F930F93C0
:1018C000FF92EF92DF927B018C01689406C0DA2EC2
:1018D000EF010E94D80BFE01E894A5912591359166
:1018E00045915591A6F3EF010E94A50AFE019701CB
:1018F000A801DA9469F7DF90EF90FF900F911F91A4
:0A190000CF91DF910895F894FFCF16
:10190A00FFFFFFFF00E100000000000000C180812E
:10191A00000000000000007501830396018B01DCC2
:06192A00019A01B8010062
:00000001FF
